{
  "_format": "hh-sol-artifact-1",
  "contractName": "LoyToken",
  "sourceName": "contracts/MultiSigWallet.sol",
  "abi": [
    {
      "inputs": [],
      "stateMutability": "nonpayable",
      "type": "constructor"
    },
    {
      "anonymous": false,
      "inputs": [
        {
          "indexed": true,
          "internalType": "address",
          "name": "_owner",
          "type": "address"
        },
        {
          "indexed": true,
          "internalType": "address",
          "name": "_spender",
          "type": "address"
        },
        {
          "indexed": false,
          "internalType": "uint256",
          "name": "_value",
          "type": "uint256"
        }
      ],
      "name": "Approval",
      "type": "event"
    },
    {
      "anonymous": false,
      "inputs": [
        {
          "indexed": true,
          "internalType": "address",
          "name": "_from",
          "type": "address"
        },
        {
          "indexed": true,
          "internalType": "address",
          "name": "_to",
          "type": "address"
        },
        {
          "indexed": false,
          "internalType": "uint256",
          "name": "_value",
          "type": "uint256"
        }
      ],
      "name": "Transfer",
      "type": "event"
    },
    {
      "inputs": [
        {
          "internalType": "address",
          "name": "",
          "type": "address"
        },
        {
          "internalType": "address",
          "name": "",
          "type": "address"
        }
      ],
      "name": "allowance",
      "outputs": [
        {
          "internalType": "uint256",
          "name": "",
          "type": "uint256"
        }
      ],
      "stateMutability": "view",
      "type": "function"
    },
    {
      "inputs": [
        {
          "internalType": "address",
          "name": "_spender",
          "type": "address"
        },
        {
          "internalType": "uint256",
          "name": "_value",
          "type": "uint256"
        }
      ],
      "name": "approve",
      "outputs": [
        {
          "internalType": "bool",
          "name": "success",
          "type": "bool"
        }
      ],
      "stateMutability": "nonpayable",
      "type": "function"
    },
    {
      "inputs": [
        {
          "internalType": "address",
          "name": "",
          "type": "address"
        }
      ],
      "name": "balanceOf",
      "outputs": [
        {
          "internalType": "uint256",
          "name": "",
          "type": "uint256"
        }
      ],
      "stateMutability": "view",
      "type": "function"
    },
    {
      "inputs": [],
      "name": "decimals",
      "outputs": [
        {
          "internalType": "uint8",
          "name": "",
          "type": "uint8"
        }
      ],
      "stateMutability": "view",
      "type": "function"
    },
    {
      "inputs": [],
      "name": "name",
      "outputs": [
        {
          "internalType": "string",
          "name": "",
          "type": "string"
        }
      ],
      "stateMutability": "view",
      "type": "function"
    },
    {
      "inputs": [],
      "name": "symbol",
      "outputs": [
        {
          "internalType": "string",
          "name": "",
          "type": "string"
        }
      ],
      "stateMutability": "view",
      "type": "function"
    },
    {
      "inputs": [],
      "name": "totalSupply",
      "outputs": [
        {
          "internalType": "uint256",
          "name": "",
          "type": "uint256"
        }
      ],
      "stateMutability": "view",
      "type": "function"
    },
    {
      "inputs": [
        {
          "internalType": "address",
          "name": "_to",
          "type": "address"
        },
        {
          "internalType": "uint256",
          "name": "_value",
          "type": "uint256"
        }
      ],
      "name": "transfer",
      "outputs": [
        {
          "internalType": "bool",
          "name": "success",
          "type": "bool"
        }
      ],
      "stateMutability": "nonpayable",
      "type": "function"
    }
  ],
  "bytecode": "0x60c060405260096080819052682637bc902a37b5b2b760b91b60a090815261002a9160009190610096565b50604080518082019091526003808252624c4f5960e81b602090920191825261005591600191610096565b5069d3c21bcecceda10000006002556003805460ff1916601217905534801561007d57600080fd5b506002543360009081526004602052604090205561016a565b8280546100a29061012f565b90600052602060002090601f0160209004810192826100c4576000855561010a565b82601f106100dd57805160ff191683800117855561010a565b8280016001018555821561010a579182015b8281111561010a5782518255916020019190600101906100ef565b5061011692915061011a565b5090565b5b80821115610116576000815560010161011b565b600181811c9082168061014357607f821691505b6020821081141561016457634e487b7160e01b600052602260045260246000fd5b50919050565b6104bc806101796000396000f3fe608060405234801561001057600080fd5b50600436106100885760003560e01c806370a082311161005b57806370a082311461010457806395d89b4114610124578063a9059cbb1461012c578063dd62ed3e1461013f57600080fd5b806306fdde031461008d578063095ea7b3146100ab57806318160ddd146100ce578063313ce567146100e5575b600080fd5b61009561016a565b6040516100a291906103b3565b60405180910390f35b6100be6100b936600461038a565b6101f8565b60405190151581526020016100a2565b6100d760025481565b6040519081526020016100a2565b6003546100f29060ff1681565b60405160ff90911681526020016100a2565b6100d7610112366004610337565b60046020526000908152604090205481565b610095610264565b6100be61013a36600461038a565b610271565b6100d761014d366004610358565b600560209081526000928352604080842090915290825290205481565b6000805461017790610435565b80601f01602080910402602001604051908101604052809291908181526020018280546101a390610435565b80156101f05780601f106101c5576101008083540402835291602001916101f0565b820191906000526020600020905b8154815290600101906020018083116101d357829003601f168201915b505050505081565b3360008181526005602090815260408083206001600160a01b038716808552925280832085905551919290917f8c5be1e5ebec7d5bd14f71427d1e84f3dd0314c0f7b2291e5b200ac8c7c3b925906102539086815260200190565b60405180910390a350600192915050565b6001805461017790610435565b3360009081526004602052604081205482111561028d57600080fd5b33600090815260046020526040812080548492906102ac90849061041e565b90915550506001600160a01b038316600090815260046020526040812080548492906102d9908490610406565b90915550506040518281526001600160a01b0384169033907fddf252ad1be2c89b69c2b068fc378daa952ba7f163c4a11628f55a4df523b3ef90602001610253565b80356001600160a01b038116811461033257600080fd5b919050565b600060208284031215610348578081fd5b6103518261031b565b9392505050565b6000806040838503121561036a578081fd5b6103738361031b565b91506103816020840161031b565b90509250929050565b6000806040838503121561039c578182fd5b6103a58361031b565b946020939093013593505050565b6000602080835283518082850152825b818110156103df578581018301518582016040015282016103c3565b818111156103f05783604083870101525b50601f01601f1916929092016040019392505050565b6000821982111561041957610419610470565b500190565b60008282101561043057610430610470565b500390565b600181811c9082168061044957607f821691505b6020821081141561046a57634e487b7160e01b600052602260045260246000fd5b50919050565b634e487b7160e01b600052601160045260246000fdfea264697066735822122056e0085f5338b157692878622d7f1fa7ca892f5902efe68276ce7e83d085a6fa64736f6c63430008040033",
  "linkReferences": {},
  "deployedLinkReferences": {}
}