{
  "_format": "hh-sol-artifact-1",
  "contractName": "MultiSigWallet",
  "sourceName": "contracts/MultiSigWallet.sol",
  "abi": [
    {
      "inputs": [
        {
          "internalType": "address[]",
          "name": "_owners",
          "type": "address[]"
        }
      ],
      "stateMutability": "nonpayable",
      "type": "constructor"
    },
    {
      "anonymous": false,
      "inputs": [
        {
          "indexed": true,
          "internalType": "address",
          "name": "owner",
          "type": "address"
        },
        {
          "indexed": true,
          "internalType": "uint256",
          "name": "txIndex",
          "type": "uint256"
        }
      ],
      "name": "ConfirmTokenTransaction",
      "type": "event"
    },
    {
      "anonymous": false,
      "inputs": [
        {
          "indexed": true,
          "internalType": "address",
          "name": "owner",
          "type": "address"
        },
        {
          "indexed": true,
          "internalType": "uint256",
          "name": "txIndex",
          "type": "uint256"
        }
      ],
      "name": "ConfirmTransaction",
      "type": "event"
    },
    {
      "anonymous": false,
      "inputs": [
        {
          "indexed": true,
          "internalType": "address",
          "name": "sender",
          "type": "address"
        },
        {
          "indexed": false,
          "internalType": "uint256",
          "name": "amount",
          "type": "uint256"
        },
        {
          "indexed": false,
          "internalType": "uint256",
          "name": "balance",
          "type": "uint256"
        }
      ],
      "name": "Deposit",
      "type": "event"
    },
    {
      "anonymous": false,
      "inputs": [
        {
          "indexed": true,
          "internalType": "address",
          "name": "owner",
          "type": "address"
        },
        {
          "indexed": true,
          "internalType": "uint256",
          "name": "txIndex",
          "type": "uint256"
        }
      ],
      "name": "ExecuteTokenTransaction",
      "type": "event"
    },
    {
      "anonymous": false,
      "inputs": [
        {
          "indexed": true,
          "internalType": "address",
          "name": "owner",
          "type": "address"
        },
        {
          "indexed": true,
          "internalType": "uint256",
          "name": "txIndex",
          "type": "uint256"
        }
      ],
      "name": "ExecuteTransaction",
      "type": "event"
    },
    {
      "anonymous": false,
      "inputs": [
        {
          "indexed": true,
          "internalType": "address",
          "name": "owner",
          "type": "address"
        },
        {
          "indexed": true,
          "internalType": "uint256",
          "name": "txIndex",
          "type": "uint256"
        }
      ],
      "name": "RevokeConfirmation",
      "type": "event"
    },
    {
      "anonymous": false,
      "inputs": [
        {
          "indexed": true,
          "internalType": "address",
          "name": "owner",
          "type": "address"
        },
        {
          "indexed": true,
          "internalType": "uint256",
          "name": "txIndex",
          "type": "uint256"
        }
      ],
      "name": "RevokeTokenConfirmation",
      "type": "event"
    },
    {
      "anonymous": false,
      "inputs": [
        {
          "indexed": true,
          "internalType": "address",
          "name": "owner",
          "type": "address"
        },
        {
          "indexed": true,
          "internalType": "uint256",
          "name": "txIndex",
          "type": "uint256"
        },
        {
          "indexed": true,
          "internalType": "address",
          "name": "to",
          "type": "address"
        },
        {
          "indexed": false,
          "internalType": "uint256",
          "name": "value",
          "type": "uint256"
        },
        {
          "indexed": false,
          "internalType": "bytes",
          "name": "data",
          "type": "bytes"
        }
      ],
      "name": "sendTokenTransaction",
      "type": "event"
    },
    {
      "anonymous": false,
      "inputs": [
        {
          "indexed": true,
          "internalType": "address",
          "name": "owner",
          "type": "address"
        },
        {
          "indexed": true,
          "internalType": "uint256",
          "name": "txIndex",
          "type": "uint256"
        },
        {
          "indexed": true,
          "internalType": "address",
          "name": "to",
          "type": "address"
        },
        {
          "indexed": false,
          "internalType": "uint256",
          "name": "value",
          "type": "uint256"
        },
        {
          "indexed": false,
          "internalType": "bytes",
          "name": "data",
          "type": "bytes"
        }
      ],
      "name": "sendTransaction",
      "type": "event"
    },
    {
      "inputs": [
        {
          "internalType": "address",
          "name": "_addr",
          "type": "address"
        }
      ],
      "name": "addSigner",
      "outputs": [],
      "stateMutability": "nonpayable",
      "type": "function"
    },
    {
      "inputs": [
        {
          "internalType": "uint256",
          "name": "_txTokenIndex",
          "type": "uint256"
        }
      ],
      "name": "confirmTokenTransaction",
      "outputs": [],
      "stateMutability": "nonpayable",
      "type": "function"
    },
    {
      "inputs": [
        {
          "internalType": "uint256",
          "name": "_txIndex",
          "type": "uint256"
        }
      ],
      "name": "confirmTransaction",
      "outputs": [],
      "stateMutability": "nonpayable",
      "type": "function"
    },
    {
      "inputs": [
        {
          "internalType": "address",
          "name": "_to",
          "type": "address"
        },
        {
          "internalType": "uint256",
          "name": "_value",
          "type": "uint256"
        },
        {
          "internalType": "bytes",
          "name": "_data",
          "type": "bytes"
        }
      ],
      "name": "createTransaction",
      "outputs": [],
      "stateMutability": "nonpayable",
      "type": "function"
    },
    {
      "inputs": [
        {
          "internalType": "address",
          "name": "_tokenAddress",
          "type": "address"
        },
        {
          "internalType": "address",
          "name": "_to",
          "type": "address"
        },
        {
          "internalType": "uint256",
          "name": "_value",
          "type": "uint256"
        },
        {
          "internalType": "bytes",
          "name": "_data",
          "type": "bytes"
        }
      ],
      "name": "createtokenTransaction",
      "outputs": [],
      "stateMutability": "nonpayable",
      "type": "function"
    },
    {
      "inputs": [
        {
          "internalType": "uint256",
          "name": "_txTokenIndex",
          "type": "uint256"
        }
      ],
      "name": "executeTokenTransaction",
      "outputs": [],
      "stateMutability": "nonpayable",
      "type": "function"
    },
    {
      "inputs": [
        {
          "internalType": "uint256",
          "name": "_txIndex",
          "type": "uint256"
        }
      ],
      "name": "executeTransaction",
      "outputs": [],
      "stateMutability": "nonpayable",
      "type": "function"
    },
    {
      "inputs": [],
      "name": "getApprovers",
      "outputs": [
        {
          "internalType": "uint256",
          "name": "",
          "type": "uint256"
        }
      ],
      "stateMutability": "view",
      "type": "function"
    },
    {
      "inputs": [],
      "name": "getContractBalance",
      "outputs": [
        {
          "internalType": "uint256",
          "name": "",
          "type": "uint256"
        }
      ],
      "stateMutability": "view",
      "type": "function"
    },
    {
      "inputs": [],
      "name": "getOwners",
      "outputs": [
        {
          "internalType": "address[]",
          "name": "",
          "type": "address[]"
        }
      ],
      "stateMutability": "view",
      "type": "function"
    },
    {
      "inputs": [
        {
          "internalType": "uint256",
          "name": "_txTokenIndex",
          "type": "uint256"
        }
      ],
      "name": "getTokenTransaction",
      "outputs": [
        {
          "internalType": "address",
          "name": "to",
          "type": "address"
        },
        {
          "internalType": "uint256",
          "name": "value",
          "type": "uint256"
        },
        {
          "internalType": "bytes",
          "name": "data",
          "type": "bytes"
        },
        {
          "internalType": "bool",
          "name": "isExecuted",
          "type": "bool"
        },
        {
          "internalType": "uint256",
          "name": "numOfConfirmations",
          "type": "uint256"
        }
      ],
      "stateMutability": "view",
      "type": "function"
    },
    {
      "inputs": [
        {
          "internalType": "uint256",
          "name": "_txIndex",
          "type": "uint256"
        }
      ],
      "name": "getTransaction",
      "outputs": [
        {
          "internalType": "address",
          "name": "to",
          "type": "address"
        },
        {
          "internalType": "uint256",
          "name": "value",
          "type": "uint256"
        },
        {
          "internalType": "bytes",
          "name": "data",
          "type": "bytes"
        },
        {
          "internalType": "bool",
          "name": "isExecuted",
          "type": "bool"
        },
        {
          "internalType": "uint256",
          "name": "numOfConfirmations",
          "type": "uint256"
        }
      ],
      "stateMutability": "view",
      "type": "function"
    },
    {
      "inputs": [],
      "name": "getTransactionCount",
      "outputs": [
        {
          "internalType": "uint256",
          "name": "",
          "type": "uint256"
        }
      ],
      "stateMutability": "view",
      "type": "function"
    },
    {
      "inputs": [
        {
          "internalType": "uint256",
          "name": "",
          "type": "uint256"
        },
        {
          "internalType": "address",
          "name": "",
          "type": "address"
        }
      ],
      "name": "isConfirmed",
      "outputs": [
        {
          "internalType": "bool",
          "name": "",
          "type": "bool"
        }
      ],
      "stateMutability": "view",
      "type": "function"
    },
    {
      "inputs": [
        {
          "internalType": "address",
          "name": "",
          "type": "address"
        }
      ],
      "name": "isOwner",
      "outputs": [
        {
          "internalType": "bool",
          "name": "",
          "type": "bool"
        }
      ],
      "stateMutability": "view",
      "type": "function"
    },
    {
      "inputs": [
        {
          "internalType": "address",
          "name": "",
          "type": "address"
        }
      ],
      "name": "isSigner",
      "outputs": [
        {
          "internalType": "bool",
          "name": "",
          "type": "bool"
        }
      ],
      "stateMutability": "view",
      "type": "function"
    },
    {
      "inputs": [
        {
          "internalType": "uint256",
          "name": "",
          "type": "uint256"
        },
        {
          "internalType": "address",
          "name": "",
          "type": "address"
        }
      ],
      "name": "isTokenConfirmed",
      "outputs": [
        {
          "internalType": "bool",
          "name": "",
          "type": "bool"
        }
      ],
      "stateMutability": "view",
      "type": "function"
    },
    {
      "inputs": [
        {
          "internalType": "uint256",
          "name": "",
          "type": "uint256"
        }
      ],
      "name": "owners",
      "outputs": [
        {
          "internalType": "address",
          "name": "",
          "type": "address"
        }
      ],
      "stateMutability": "view",
      "type": "function"
    },
    {
      "inputs": [
        {
          "internalType": "uint256",
          "name": "_txIndex",
          "type": "uint256"
        }
      ],
      "name": "revokeConfirmation",
      "outputs": [],
      "stateMutability": "nonpayable",
      "type": "function"
    },
    {
      "inputs": [
        {
          "internalType": "uint256",
          "name": "_txTokenIndex",
          "type": "uint256"
        }
      ],
      "name": "revokeTokenConfirmation",
      "outputs": [],
      "stateMutability": "nonpayable",
      "type": "function"
    },
    {
      "inputs": [
        {
          "internalType": "uint256",
          "name": "",
          "type": "uint256"
        }
      ],
      "name": "signers",
      "outputs": [
        {
          "internalType": "address",
          "name": "addr",
          "type": "address"
        },
        {
          "internalType": "address",
          "name": "addedBy",
          "type": "address"
        }
      ],
      "stateMutability": "view",
      "type": "function"
    },
    {
      "inputs": [
        {
          "internalType": "uint256",
          "name": "",
          "type": "uint256"
        }
      ],
      "name": "tokenTransactions",
      "outputs": [
        {
          "internalType": "contract LoyToken",
          "name": "token",
          "type": "address"
        },
        {
          "internalType": "address",
          "name": "to",
          "type": "address"
        },
        {
          "internalType": "uint256",
          "name": "value",
          "type": "uint256"
        },
        {
          "internalType": "bytes",
          "name": "data",
          "type": "bytes"
        },
        {
          "internalType": "bool",
          "name": "isExecuted",
          "type": "bool"
        },
        {
          "internalType": "uint256",
          "name": "numOfConfirmations",
          "type": "uint256"
        }
      ],
      "stateMutability": "view",
      "type": "function"
    },
    {
      "inputs": [
        {
          "internalType": "uint256",
          "name": "",
          "type": "uint256"
        }
      ],
      "name": "transactions",
      "outputs": [
        {
          "internalType": "address",
          "name": "to",
          "type": "address"
        },
        {
          "internalType": "uint256",
          "name": "value",
          "type": "uint256"
        },
        {
          "internalType": "bytes",
          "name": "data",
          "type": "bytes"
        },
        {
          "internalType": "bool",
          "name": "isExecuted",
          "type": "bool"
        },
        {
          "internalType": "uint256",
          "name": "numOfConfirmations",
          "type": "uint256"
        }
      ],
      "stateMutability": "view",
      "type": "function"
    },
    {
      "stateMutability": "payable",
      "type": "receive"
    }
  ],
  "bytecode": "0x60806040523480156200001157600080fd5b506040516200245638038062002456833981016040819052620000349162000207565b60008151116200007d5760405162461bcd60e51b815260206004820152600f60248201526e1bdddb995c9cc81c995c5d5a5c9959608a1b60448201526064015b60405180910390fd5b60005b8151811015620001df576000828281518110620000ad57634e487b7160e01b600052603260045260246000fd5b6020026020010151905060006001600160a01b0316816001600160a01b031614156200010c5760405162461bcd60e51b815260206004820152600d60248201526c34b73b30b634b21037bbb732b960991b604482015260640162000074565b6001600160a01b03811660009081526001602052604090205460ff16156200016a5760405162461bcd60e51b815260206004820152601060248201526f6f776e6572206e6f7420756e6971756560801b604482015260640162000074565b6001600160a01b031660008181526001602081905260408220805460ff191682179055815490810182559080527f290decd9548b62a8d60345a988386fc84ba6bc95484008f6362f93160ef3e5630180546001600160a01b031916909117905580620001d681620002db565b91505062000080565b505160035562000319565b80516001600160a01b03811681146200020257600080fd5b919050565b600060208083850312156200021a578182fd5b82516001600160401b038082111562000231578384fd5b818501915085601f83011262000245578384fd5b8151818111156200025a576200025a62000303565b8060051b604051601f19603f8301168101818110858211171562000282576200028262000303565b604052828152858101935084860182860187018a1015620002a1578788fd5b8795505b83861015620002ce57620002b981620001ea565b855260019590950194938601938601620002a5565b5098975050505050505050565b6000600019821415620002fc57634e487b7160e01b81526011600452602481fd5b5060010190565b634e487b7160e01b600052604160045260246000fd5b61212d80620003296000396000f3fe6080604052600436106101445760003560e01c806380f59a65116100b6578063c38672a01161006f578063c38672a01461045b578063d822faab1461047b578063e4d270271461049b578063eb12d61e146104bb578063ee22610b146104db578063f0953389146104fb57600080fd5b806380f59a65146103635780639ace38c21461039e578063a0e67e2b146103be578063a9496e75146103e0578063b8b4759a14610400578063c01a8c841461043b57600080fd5b80632f54bf6e116101085780632f54bf6e1461026857806333ea3dc8146102a85780635c337b14146102d95780636cb3e8ef1461030b5780636f9fb98a146103205780637df73e271461033357600080fd5b8063019b0c2b1461018a578063025e7c27146101ac5780632079fb9a146101e957806320ea8d86146102295780632e7700f01461024957600080fd5b36610185576040805134815247602082015233917f90890809c654f11d6e72a28fa60149770a0d11ec6c92319d6ceb2bb0a4ea1a15910160405180910390a2005b600080fd5b34801561019657600080fd5b506101aa6101a5366004611cdf565b61051b565b005b3480156101b857600080fd5b506101cc6101c7366004611cdf565b610838565b6040516001600160a01b0390911681526020015b60405180910390f35b3480156101f557600080fd5b50610209610204366004611cdf565b610862565b604080516001600160a01b039384168152929091166020830152016101e0565b34801561023557600080fd5b506101aa610244366004611cdf565b61089b565b34801561025557600080fd5b506007545b6040519081526020016101e0565b34801561027457600080fd5b50610298610283366004611be3565b60016020526000908152604090205460ff1681565b60405190151581526020016101e0565b3480156102b457600080fd5b506102c86102c3366004611cdf565b610a53565b6040516101e0959493929190611e20565b3480156102e557600080fd5b506102f96102f4366004611cdf565b610b5c565b6040516101e096959493929190611ea8565b34801561031757600080fd5b5061025a610c40565b34801561032c57600080fd5b504761025a565b34801561033f57600080fd5b5061029861034e366004611be3565b60026020526000908152604090205460ff1681565b34801561036f57600080fd5b5061029861037e366004611d0f565b600460209081526000928352604080842090915290825290205460ff1681565b3480156103aa57600080fd5b506102c86103b9366004611cdf565b610c72565b3480156103ca57600080fd5b506103d3610d4b565b6040516101e09190611e5b565b3480156103ec57600080fd5b506101aa6103fb366004611c6a565b610dad565b34801561040c57600080fd5b5061029861041b366004611d0f565b600560209081526000928352604080842090915290825290205460ff1681565b34801561044757600080fd5b506101aa610456366004611cdf565b610f4e565b34801561046757600080fd5b506101aa610476366004611cdf565b611112565b34801561048757600080fd5b506102c8610496366004611cdf565b6112df565b3480156104a757600080fd5b506101aa6104b6366004611c04565b61135e565b3480156104c757600080fd5b506101aa6104d6366004611be3565b61153a565b3480156104e757600080fd5b506101aa6104f6366004611cdf565b611695565b34801561050757600080fd5b506101aa610516366004611cdf565b6118ef565b3360009081526001602052604090205460ff168061054857503360009081526002602052604090205460ff165b61056d5760405162461bcd60e51b815260040161056490611ef0565b60405180910390fd5b600854819081106105905760405162461bcd60e51b815260040161056490611f20565b81600881815481106105b257634e487b7160e01b600052603260045260246000fd5b600091825260209091206004600690920201015460ff16156105e65760405162461bcd60e51b815260040161056490611faf565b60006008848154811061060957634e487b7160e01b600052603260045260246000fd5b90600052602060002090600602019050600060646006805490506003546106309190612007565b61063b90604b61203f565b610645919061201f565b905080826005015410156106935760405162461bcd60e51b81526020600482015260156024820152743737ba1032b737bab3b41030b8383937bb32b9399760591b6044820152606401610564565b81546040516370a0823160e01b81523060048201526000916001600160a01b0316906370a082319060240160206040518083038186803b1580156106d657600080fd5b505afa1580156106ea573d6000803e3d6000fd5b505050506040513d601f19601f8201168201806040525081019061070e9190611cf7565b905080836002015411156107645760405162461bcd60e51b815260206004820152601860248201527f6e6f7420656e6f75676820746f6b656e2062616c616e636500000000000000006044820152606401610564565b82546001840154600285015460405163a9059cbb60e01b81526001600160a01b039283166004820152602481019190915291169063a9059cbb90604401602060405180830381600087803b1580156107bb57600080fd5b505af11580156107cf573d6000803e3d6000fd5b505050506040513d601f19601f820116820180604052508101906107f39190611cbf565b5060048301805460ff19166001179055604051869033907f0e6d3c760ceb4be615ae4359f4dcf368a7d45fbc963f7ab7a70a067ef0a8976090600090a3505050505050565b6000818154811061084857600080fd5b6000918252602090912001546001600160a01b0316905081565b6006818154811061087257600080fd5b6000918252602090912060029091020180546001909101546001600160a01b0391821692501682565b3360009081526001602052604090205460ff16806108c857503360009081526002602052604090205460ff165b6108e45760405162461bcd60e51b815260040161056490611ef0565b600754819081106109075760405162461bcd60e51b815260040161056490611f57565b816007818154811061092957634e487b7160e01b600052603260045260246000fd5b600091825260209091206003600590920201015460ff161561095d5760405162461bcd60e51b815260040161056490611f82565b60006007848154811061098057634e487b7160e01b600052603260045260246000fd5b600091825260208083208784526004825260408085203386529092529220546005909102909101915060ff166109eb5760405162461bcd60e51b815260206004820152601060248201526f1d1e081b9bdd0818dbdb999a5c9b595960821b6044820152606401610564565b6001816004016000828254610a00919061205e565b90915550506000848152600460209081526040808320338085529252808320805460ff191690555186927ff0dca620e2e81f7841d07bcc105e1704fb01475b278a9d4c236e1c62945edd5591a350505050565b6000806060600080600060078781548110610a7e57634e487b7160e01b600052603260045260246000fd5b6000918252602090912060059091020180546001820154600383015460048401546002850180549596506001600160a01b039094169492939260ff909216918390610ac890612075565b80601f0160208091040260200160405190810160405280929190818152602001828054610af490612075565b8015610b415780601f10610b1657610100808354040283529160200191610b41565b820191906000526020600020905b815481529060010190602001808311610b2457829003601f168201915b50505050509250955095509550955095505091939590929450565b60088181548110610b6c57600080fd5b600091825260209091206006909102018054600182015460028301546003840180546001600160a01b039485169650929093169390929091610bad90612075565b80601f0160208091040260200160405190810160405280929190818152602001828054610bd990612075565b8015610c265780601f10610bfb57610100808354040283529160200191610c26565b820191906000526020600020905b815481529060010190602001808311610c0957829003601f168201915b505050506004830154600590930154919260ff1691905086565b6006546003546000918291606491610c5791612007565b610c6290604b61203f565b610c6c919061201f565b92915050565b60078181548110610c8257600080fd5b60009182526020909120600590910201805460018201546002830180546001600160a01b039093169450909291610cb890612075565b80601f0160208091040260200160405190810160405280929190818152602001828054610ce490612075565b8015610d315780601f10610d0657610100808354040283529160200191610d31565b820191906000526020600020905b815481529060010190602001808311610d1457829003601f168201915b505050506003830154600490930154919260ff1691905085565b60606000805480602002602001604051908101604052809291908181526020018280548015610da357602002820191906000526020600020905b81546001600160a01b03168152600190910190602001808311610d85575b5050505050905090565b3360009081526001602052604090205460ff1680610dda57503360009081526002602052604090205460ff165b610df65760405162461bcd60e51b815260040161056490611ef0565b600780546040805160a0810182526001600160a01b0387811682526020808301888152938301878152600060608501819052608085018190526001870188559690965282517fa66cc928b5edb82af9bd49922954155ab7b0942694bea4ce44661d9a8736c6886005870290810180546001600160a01b0319169290941691909117835593517fa66cc928b5edb82af9bd49922954155ab7b0942694bea4ce44661d9a8736c68985015594518051949592949193610eda937fa66cc928b5edb82af9bd49922954155ab7b0942694bea4ce44661d9a8736c68a90910192910190611aa7565b50606082015160038201805460ff19169115159190911790556080909101516004909101556040516001600160a01b03851690829033907fca4b405b8cb4ef62d286c765f93a30a0043b272f409778f237c8c87051ce801b90610f409088908890611fe6565b60405180910390a450505050565b3360009081526001602052604090205460ff1680610f7b57503360009081526002602052604090205460ff165b610f975760405162461bcd60e51b815260040161056490611ef0565b60075481908110610fba5760405162461bcd60e51b815260040161056490611f57565b8160078181548110610fdc57634e487b7160e01b600052603260045260246000fd5b600091825260209091206003600590920201015460ff16156110105760405162461bcd60e51b815260040161056490611f82565b6000838152600460209081526040808320338452909152902054839060ff16156110735760405162461bcd60e51b81526020600482015260146024820152731d1e08185b1c9958591e4818dbdb999a5c9b595960621b6044820152606401610564565b60006007858154811061109657634e487b7160e01b600052603260045260246000fd5b9060005260206000209060050201905060018160040160008282546110bb9190612007565b90915550506000858152600460209081526040808320338085529252808320805460ff191660011790555187927f5cbe105e36805f7820e291f799d5794ff948af2a5f664e580382defb6339004191a35050505050565b3360009081526001602052604090205460ff168061113f57503360009081526002602052604090205460ff165b61115b5760405162461bcd60e51b815260040161056490611ef0565b6008548190811061117e5760405162461bcd60e51b815260040161056490611f20565b81600881815481106111a057634e487b7160e01b600052603260045260246000fd5b600091825260209091206004600690920201015460ff16156111d45760405162461bcd60e51b815260040161056490611faf565b6000838152600560209081526040808320338452909152902054839060ff16156112405760405162461bcd60e51b815260206004820152601a60248201527f746f6b656e20747820616c726561647920636f6e6669726d65640000000000006044820152606401610564565b60006008858154811061126357634e487b7160e01b600052603260045260246000fd5b9060005260206000209060060201905060018160050160008282546112889190612007565b90915550506000858152600560209081526040808320338085529252808320805460ff191660011790555187927fdb11afb234dc99f8aad77322464361b09e7cbc96c4aaef6eacfbc1aa97eac85a91a35050505050565b600080606060008060006008878154811061130a57634e487b7160e01b600052603260045260246000fd5b906000526020600020906006020190508060010160009054906101000a90046001600160a01b03168160020154826003018360040160009054906101000a900460ff168460050154828054610ac890612075565b3360009081526001602052604090205460ff168061138b57503360009081526002602052604090205460ff165b6113a75760405162461bcd60e51b815260040161056490611ef0565b600880546040805160c0810182526001600160a01b03808916825287811660208084019182529383018881526060840188815260006080860181905260a08601819052600188018955979097528351600687027ff3f7a9fe364faab93b216da50a3214154f22a0a2b415b23a84c8169e8b636ee3810180549286166001600160a01b031993841617815593517ff3f7a9fe364faab93b216da50a3214154f22a0a2b415b23a84c8169e8b636ee48201805491909616921691909117909355517ff3f7a9fe364faab93b216da50a3214154f22a0a2b415b23a84c8169e8b636ee5830155945180519495929492936114c5937ff3f7a9fe364faab93b216da50a3214154f22a0a2b415b23a84c8169e8b636ee690930192910190611aa7565b50608082015160048201805460ff191691151591909117905560a0909101516005909101556040516001600160a01b03851690829033907f4dd59d549595cca01db47633f80c6aeb5ac847f37d365faa65ddf6e40c6a56739061152b9088908890611fe6565b60405180910390a45050505050565b3360009081526001602052604090205460ff166115855760405162461bcd60e51b81526020600482015260096024820152683737ba1037bbb732b960b91b6044820152606401610564565b604080518082019091526001600160a01b0380831682523360208301908152600680546001810182556000918252935160029094027ff652222313e28459528d920b65115c16c04f3efc82aaedc97be59f3f377c0d3f810180549585166001600160a01b031996871617905591517ff652222313e28459528d920b65115c16c04f3efc82aaedc97be59f3f377c0d40909201805492909316919093161790555b6006548110156116915760006006828154811061165257634e487b7160e01b600052603260045260246000fd5b60009182526020808320600292830201546001600160a01b031683525260409020805460ff191660011790555080611689816120b0565b915050611625565b5050565b3360009081526001602052604090205460ff16806116c257503360009081526002602052604090205460ff165b6116de5760405162461bcd60e51b815260040161056490611ef0565b600754819081106117015760405162461bcd60e51b815260040161056490611f57565b816007818154811061172357634e487b7160e01b600052603260045260246000fd5b600091825260209091206003600590920201015460ff16156117575760405162461bcd60e51b815260040161056490611f82565b60006007848154811061177a57634e487b7160e01b600052603260045260246000fd5b90600052602060002090600502019050600060646006805490506003546117a19190612007565b6117ac90604b61203f565b6117b6919061201f565b905080826004015410156118045760405162461bcd60e51b81526020600482015260156024820152743737ba1032b737bab3b41030b8383937bb32b9399760591b6044820152606401610564565b60038201805460ff191660019081179091558254908301546040516000926001600160a01b0316919061183b906002870190611d85565b60006040518083038185875af1925050503d8060008114611878576040519150601f19603f3d011682016040523d82523d6000602084013e61187d565b606091505b50509050806118ba5760405162461bcd60e51b81526020600482015260096024820152681d1e0819985a5b195960ba1b6044820152606401610564565b604051869033907f5445f318f4f5fcfb66592e68e0cc5822aa15664039bd5f0ffde24c5a8142b1ac90600090a3505050505050565b3360009081526001602052604090205460ff168061191c57503360009081526002602052604090205460ff165b6119385760405162461bcd60e51b815260040161056490611ef0565b6008548190811061195b5760405162461bcd60e51b815260040161056490611f20565b816008818154811061197d57634e487b7160e01b600052603260045260246000fd5b600091825260209091206004600690920201015460ff16156119b15760405162461bcd60e51b815260040161056490611faf565b6000600884815481106119d457634e487b7160e01b600052603260045260246000fd5b600091825260208083208784526004825260408085203386529092529220546006909102909101915060ff16611a3f5760405162461bcd60e51b815260206004820152601060248201526f1d1e081b9bdd0818dbdb999a5c9b595960821b6044820152606401610564565b6001816005016000828254611a54919061205e565b90915550506000848152600560209081526040808320338085529252808320805460ff191690555186927f53dce6fc7d54149f1956be7310d89ecc8254c587f41f6764a8eea50fcad6358b91a350505050565b828054611ab390612075565b90600052602060002090601f016020900481019282611ad55760008555611b1b565b82601f10611aee57805160ff1916838001178555611b1b565b82800160010185558215611b1b579182015b82811115611b1b578251825591602001919060010190611b00565b50611b27929150611b2b565b5090565b5b80821115611b275760008155600101611b2c565b80356001600160a01b0381168114611b5757600080fd5b919050565b600082601f830112611b6c578081fd5b813567ffffffffffffffff80821115611b8757611b876120e1565b604051601f8301601f19908116603f01168101908282118183101715611baf57611baf6120e1565b81604052838152866020858801011115611bc7578485fd5b8360208701602083013792830160200193909352509392505050565b600060208284031215611bf4578081fd5b611bfd82611b40565b9392505050565b60008060008060808587031215611c19578283fd5b611c2285611b40565b9350611c3060208601611b40565b925060408501359150606085013567ffffffffffffffff811115611c52578182fd5b611c5e87828801611b5c565b91505092959194509250565b600080600060608486031215611c7e578283fd5b611c8784611b40565b925060208401359150604084013567ffffffffffffffff811115611ca9578182fd5b611cb586828701611b5c565b9150509250925092565b600060208284031215611cd0578081fd5b81518015158114611bfd578182fd5b600060208284031215611cf0578081fd5b5035919050565b600060208284031215611d08578081fd5b5051919050565b60008060408385031215611d21578182fd5b82359150611d3160208401611b40565b90509250929050565b60008151808452815b81811015611d5f57602081850181015186830182015201611d43565b81811115611d705782602083870101525b50601f01601f19169290920160200192915050565b600080835482600182811c915080831680611da157607f831692505b6020808410821415611dc157634e487b7160e01b87526022600452602487fd5b818015611dd55760018114611de657611e12565b60ff19861689528489019650611e12565b60008a815260209020885b86811015611e0a5781548b820152908501908301611df1565b505084890196505b509498975050505050505050565b60018060a01b038616815284602082015260a060408201526000611e4760a0830186611d3a565b931515606083015250608001529392505050565b6020808252825182820181905260009190848201906040850190845b81811015611e9c5783516001600160a01b031683529284019291840191600101611e77565b50909695505050505050565b6001600160a01b038781168252861660208201526040810185905260c060608201819052600090611edb90830186611d3a565b93151560808301525060a00152949350505050565b6020808252601690820152753737ba1030b71037bbb732b91037b91039b4b3b732b960511b604082015260600190565b60208082526017908201527f746f6b656e20747820646f6573206e6f74206578697374000000000000000000604082015260600190565b6020808252601190820152701d1e08191bd95cc81b9bdd08195e1a5cdd607a1b604082015260600190565b6020808252601390820152721d1e08185b1c9958591e48195e1958dd5d1959606a1b604082015260600190565b60208082526019908201527f746f6b656e20747820616c726561647920657865637574656400000000000000604082015260600190565b828152604060208201526000611fff6040830184611d3a565b949350505050565b6000821982111561201a5761201a6120cb565b500190565b60008261203a57634e487b7160e01b81526012600452602481fd5b500490565b6000816000190483118215151615612059576120596120cb565b500290565b600082821015612070576120706120cb565b500390565b600181811c9082168061208957607f821691505b602082108114156120aa57634e487b7160e01b600052602260045260246000fd5b50919050565b60006000198214156120c4576120c46120cb565b5060010190565b634e487b7160e01b600052601160045260246000fd5b634e487b7160e01b600052604160045260246000fdfea264697066735822122015f083057914f35af85aa3c687758c593c7d8dfc4cbe330205f0234da7ee3fa464736f6c63430008040033",
  "linkReferences": {},
  "deployedLinkReferences": {}
}